:020000040800F2
:1000000060070020890100089101000893010008A1
:100010009501000897010008990100080000000000
:100020000000000000000000000000009B0100082C
:100030009D010008000000009F010008590500080C
:10004000A3010008A3010008A3010008A301000800
:10005000A3010008A3010008A3010008A3010008F0
:10006000A3010008A3010008A3010008A3010008E0
:10007000A3010008A3010008A3010008A3010008D0
:10008000A3010008A3010008A3010008A3010008C0
:10009000A3010008A3010008A3010008A3010008B0
:1000A000A3010008A3010008A3010008A3010008A0
:1000B000A3010008A3010008A3010008A301000890
:1000C000A3010008A3010008A3010008A301000880
:1000D000A3010008B9050008A3010008A301000856
:1000E000A3010008A3010008A301000800F002F822
:1000F00000F03AF80AA090E8000C82448344AAF188
:100100000107DA4501D100F02FF8AFF2090EBAE885
:100110000F0013F0010F18BFFB1A43F0010318473B
:1001200090070000B0070000103A24BF78C878C1DB
:10013000FAD8520724BF30C830C144BF04680C60ED
:10014000704700000023002400250026103A28BF35
:1001500078C1FBD8520728BF30C148BF0B60704739
:100160001FB51FBD10B510BD00F06CF81146FFF7AC
:10017000F7FF00F033FB00F09EF803B4FFF7F2FF47
:1001800003BC00F0F7FA000009488047094800471F
:10019000FEE7FEE7FEE7FEE7FEE7FEE7FEE7FEE737
:1001A000FEE7FEE704480549054A064B7047000094
:1001B00069050008ED0000086001002060070020CC
:1001C00060030020600300200FB4044910B503AAA7
:1001D000029800F009F810BC5DF814FB2C00002018
:1001E0007047704770470000074B70B50D467B4461
:1001F00000F011F80446284600F020F810B14FF046
:10020000FF3070BD204670BDD305000001694A1C57
:1002100002610878704700B58FB0CDE90131002147
:10022000059105497944CDE903101146684600F06F
:100230002EF80FB000BD0000E5FFFFFF007B00F0CF
:1002400080007047754600F03FF8AE4605006946ED
:10025000534620F00700854618B020B5FFF7A2FFEF
:10026000BDE820404FF000064FF000074FF00008B7
:100270004FF0000B21F00701AC46ACE8C009ACE838
:10028000C009ACE8C009ACE8C0098D4670472DE94B
:10029000F04106460024D6E90170F56880463046F4
:1002A00003E04146B847641C3046A8470028F8D10F
:1002B0002046BDE8F08110B50446AFF3008020462B
:1002C000BDE81040FFF759BF00487047FC00002010
:1002D0002DE9F0410022CC7804F00F03E40601D5AB
:1002E0008C7823430C784FF00F0714F0FF0F4FF07A
:1002F000010C1CD005680CFA02F40E882640A642B8
:1003000011D1960007FA06F825EA080503FA06F85F
:1003100048EA0505CE78282E02D0482E02D002E009
:10032000446100E00461521C082AE4D305600A8895
:10033000FF2A1ED94568002202F108060CFA06F4CD
:100340000E882640A64210D1960007FA06F825EA44
:10035000080503FA06F848EA0505CE78282E00D1EC
:100360004461CE78482E00D10461521C082AE3D3A0
:100370004560BDE8F081000070B50F23C27801260A
:100380000178002A1ED0144A126802F4E062C2F515
:10039000E062120AC2F10404D3404578A540827895
:1003A0001A402A43120101F1E02181F8002400786B
:1003B00000F01F018E404009800000F1E020C0F8ED
:1003C000006170BD01F01F0086404809800000F107
:1003D000E020C0F8806170BD0CED00E0054A002906
:1003E00003D09169014391617047916981439161A3
:1003F000704700000010024010B5264A516801F015
:100400000C01254B002927D0042927D0082927D003
:100410000360516801F0F0010909204B5C5C016840
:10042000E1404160546804F4E064240A1C5D21FA50
:1004300004F48460546804F46054E40A1B5DD940F9
:10044000C160526802F44042920B144B1B1F9A5C2D
:10045000B1FBF2F1016110BD0360DAE70360D8E798
:10046000516801F47011536803F48033022404EBE3
:10047000914133B153689B0307D5094B5943016040
:10048000C7E7074B59430160C3E7034B594301607A
:10049000BFE700000010024000127A0004000020B4
:1004A00000093D00AFF300800CB5002201920092DC
:1004B0002748016841F4803101604FF4A06301686E
:1004C00001F4003100910199491C0191009911B981
:1004D00001999942F3D10168890302D50121009164
:1004E00000E000920099012930D11A490A6842F0CF
:1004F00010020A600A6822F003020A600A6842F0E9
:1005000002020A604168416041684160416841F40B
:1005100080614160416821F47C114160416841F48F
:10052000E8114160016841F0807101600168890152
:10053000FCD5416821F003014160416841F00201AE
:1005400041604168C1F381010229FAD10CBD00006C
:10055000001002400020024002480168491C01606E
:10056000704700003000002010B50F48016841F0CE
:100570000101016041680D4A1140416001680C4A67
:1005800011400160016821F480210160416821F47B
:10059000FE0141604FF41F018160FFF783FF0549B1
:1005A0004FF00060086010BD001002400000FFF82E
:1005B000FFFFF6FE08ED00E070B5164C40F2255145
:1005C000204600F039F800280ED0204600F0CEF882
:1005D000C1B2114A1088030406D444044FF000034A
:1005E00007D50A2901D0138070BD40F40040108067
:1005F00070BD0D290AD0094DC0F30D042955401CCA
:1006000080B21080C728F3D9138070BD40F48040B9
:10061000108070BD00380140280000203400002008
:10062000002904D0818941F400518181704781897A
:1006300021F400518181704770B5002440F66A12A0
:10064000C1F3421301F01F05012606FA05F2012B42
:100650000CD0022B0DD0838A1340090A8E400088EB
:1006600030400BB100B10124204670BD8389134096
:10067000F3E7038A1340F0E710B540F66A13C1F3BD
:10068000421301F01F040121A140012B07D0022BCE
:1006900007D014303AB102680A43026010BD0C3032
:1006A000F8E71030F6E702688A43026010BD0000E8
:1006B00030B585B004460D46208A4CF6FF710840DF
:1006C000E98801432182A0894EF6F3110840A988E8
:1006D0002A8911436A8902431143A181A08A4FF6F6
:1006E000FF410840A9890143A1826846FFF784FEC3
:1006F0001D48844201D1039800E00298A1890904B1
:1007000008D500EBC00101EB001029684900B0FBDF
:10071000F1F007E000EBC00101EB0010296889004F
:10072000B0FBF1F06422B0FBF2F109010B096FF0AC
:1007300018056B4300EB8300A3891D044FF03203BF
:1007400007D503EBC000B0FBF2F000F00700084350
:1007500006E003EB0010B0FBF2F000F00F000843DE
:10076000208105B030BD0000003801408088C0F312
:1007700008007047704700000B484FF47A7100681A
:10078000B0FBF1F0B0F1807F0CD220F07F414FF050
:10079000E020491E4161054AF0211170002181616C
:1007A00007210161704700001400002023ED00E0E4
:1007B00003490A680B689B1A8342FBD37047000009
:1007C0003000002004490A885206FCD5024AC1B212
:1007D000121D11807047000000380140FFF7CCFF68
:1007E0004FF4E13000F014F84FF4FA7403A0FFF76F
:1007F000EBFC2046FFF7DCFFF8E7000048656C6C77
:100800006F2C20555341525431210D0A0000000035
:1008100070B586B00546012144F20400FFF7DEFD05
:100820004FF40070ADF8140003248DF81640182022
:100830008DF817001C4E05A93046FFF749FD30150D
:10084000ADF8140004208DF8170005A93046FFF715
:100850003FFD01950020ADF80800ADF80A00ADF8A5
:100860000C00ADF810000C20ADF80E0025208DF81E
:1008700000008DF801408DF8024001208DF8030042
:100880006846FFF779FD094C01A92046FFF710FFE4
:10089000012240F225512046FFF7EEFE01212046BD
:1008A000FFF7BEFE06B070BD0008014000380140F1
:1008B000D0080008000000203400000028010008D3
:1008C00004090008340000202C070000440100083F
:1008D00002040608000000000102030401020304F0
:1008E0000607080900A24A040000000000000000FA
:1008F00001020304060708090000000000000000D0
:0409000000000000F3
:040000050800018965
:00000001FF
