:020000040800F2
:10000000780600208901000891010008930100088A
:100010009501000897010008990100080000000000
:100020000000000000000000000000009B0100082C
:100030009D010008000000009F010008C1030008A6
:10004000A3010008A3010008A3010008A301000800
:10005000A3010008A3010008A3010008A3010008F0
:10006000A3010008A3010008A3010008A3010008E0
:10007000A3010008A3010008A3010008A3010008D0
:10008000A3010008A3010008A3010008A3010008C0
:10009000A3010008A3010008A3010008A3010008B0
:1000A000A3010008A3010008A3010008A3010008A0
:1000B000A3010008A3010008A3010008A301000890
:1000C000A3010008A3010008A3010008A301000880
:1000D000A3010008A3010008A3010008A301000870
:1000E000A3010008A3010008A301000800F002F822
:1000F00000F03AF80AA090E8000C82448344AAF188
:100100000107DA4501D100F02FF8AFF2090EBAE885
:100110000F0013F0010F18BFFB1A43F0010318473B
:100120009C030000BC030000103A24BF78C878C1CB
:10013000FAD8520724BF30C830C144BF04680C60ED
:10014000704700000023002400250026103A28BF35
:1001500078C1FBD8520728BF30C148BF0B60704739
:100160001FB51FBD10B510BD00F031F81146FFF7E7
:10017000F7FF00F07BF900F04FF803B4FFF7F2FF50
:1001800003BC00F057F800000948804709480047C1
:10019000FEE7FEE7FEE7FEE7FEE7FEE7FEE7FEE737
:1001A000FEE7FEE704480549054A064B7047000094
:1001B000D1030008ED000008780000207806002038
:1001C000780200207802002070477047704775461B
:1001D00000F02CF8AE4605006946534620F00700B3
:1001E000854618B020B5FFF7DDFFBDE820404FF091
:1001F00000064FF000074FF000084FF0000B21F011
:100200000701AC46ACE8C009ACE8C009ACE8C009DD
:10021000ACE8C0098D46704710B50446AFF30080C6
:100220002046BDE81040FFF7A8BF00000048704717
:100230001800002001491820ABBEFEE7260002008E
:1002400070472DE9F0410022CC7804F00F03E4065A
:1002500001D58C7823430C784FF00F0714F0FF0F73
:100260004FF0010C1CD005680CFA02F40E882640F1
:10027000A64211D1960007FA06F825EA080503FA06
:1002800006F848EA0505CE78282E02D0482E02D07E
:1002900002E0446100E00461521C082AE4D30560D6
:1002A0000A88FF2A1ED94568002202F108060CFAC6
:1002B00006F40E882640A64210D1960007FA06F8EA
:1002C00025EA080503FA06F848EA0505CE78282E3F
:1002D00000D14461CE78482E00D10461521C082A16
:1002E000E3D34560BDE8F08141617047016170472B
:1002F000054A002903D091690143916170479169D2
:10030000814391617047000000100240AFF300800C
:100310000CB50022019200922748016841F4803117
:1003200001604FF4A063016801F40031009101996C
:10033000491C0191009911B901999942F3D10168C1
:10034000890302D50121009100E000920099012962
:1003500030D11A490A6842F010020A600A6822F095
:1003600003020A600A6842F002020A6041684160C2
:1003700041684160416841F480614160416821F415
:100380007C114160416841F4E8114160016841F02D
:100390008071016001688901FCD5416821F0030189
:1003A0004160416841F0020141604168C1F381014F
:1003B0000229FAD10CBD00000010024000200240CA
:1003C00002480168491C01607047000014000020C9
:1003D00010B50F48016841F00101016041680D4A04
:1003E0001140416001680C4A11400160016821F42C
:1003F00080210160416821F4FE0141604FF41F013A
:100400008160FFF783FF05494FF00060086010BD71
:10041000001002400000FFF8FFFFF6FE08ED00E0CC
:100420000B484FF47A710068B0FBF1F0B0F1807FB7
:100430000CD220F07F414FF0E020491E4161054A77
:10044000F0211170002181610721016170470000D6
:100450000000002023ED00E003490A680B689B1AA6
:100460008342FBD3704700001400002008B501212F
:100470001020FFF73DFF10208DF803004402ADF877
:10048000004003208DF802000B4D69462846FFF717
:10049000D8FEFFF7C5FF4FF47A7621462846FFF7CE
:1004A00025FF3046FFF7D8FF21462846FFF71CFFFF
:1004B0003046FFF7D1FFF0E700100140DC040008F0
:1004C000000000201800000028010008F4040008C3
:1004D00018000020600600004401000800A24A0441
:1004E00000000000000000000102030406070809E4
:0404F0000000000008
:040000050800018965
:00000001FF
